{
  "abi": [
    {
      "inputs": [
        {
          "internalType": "address",
          "name": "msgSender",
          "type": "address"
        },
        {
          "internalType": "bool",
          "name": "pausedState",
          "type": "bool"
        }
      ],
      "name": "RequirePaused",
      "type": "error"
    },
    {
      "inputs": [
        {
          "internalType": "address",
          "name": "msgSender",
          "type": "address"
        },
        {
          "internalType": "bool",
          "name": "pausedState",
          "type": "bool"
        }
      ],
      "name": "RequireUnpaused",
      "type": "error"
    },
    {
      "anonymous": false,
      "inputs": [
        {
          "indexed": true,
          "internalType": "address",
          "name": "account",
          "type": "address"
        },
        {
          "indexed": true,
          "internalType": "bool",
          "name": "state",
          "type": "bool"
        }
      ],
      "name": "Paused",
      "type": "event"
    },
    {
      "anonymous": false,
      "inputs": [
        {
          "indexed": true,
          "internalType": "bytes4",
          "name": "role",
          "type": "bytes4"
        },
        {
          "indexed": true,
          "internalType": "bytes4",
          "name": "newAdminRole",
          "type": "bytes4"
        }
      ],
      "name": "RoleAdminChanged",
      "type": "event"
    },
    {
      "anonymous": false,
      "inputs": [
        {
          "indexed": true,
          "internalType": "bytes4",
          "name": "role",
          "type": "bytes4"
        },
        {
          "indexed": true,
          "internalType": "address",
          "name": "account",
          "type": "address"
        },
        {
          "indexed": true,
          "internalType": "address",
          "name": "sender",
          "type": "address"
        }
      ],
      "name": "RoleGranted",
      "type": "event"
    },
    {
      "anonymous": false,
      "inputs": [
        {
          "indexed": true,
          "internalType": "bytes4",
          "name": "role",
          "type": "bytes4"
        },
        {
          "indexed": true,
          "internalType": "address",
          "name": "account",
          "type": "address"
        },
        {
          "indexed": true,
          "internalType": "address",
          "name": "sender",
          "type": "address"
        }
      ],
      "name": "RoleRevoked",
      "type": "event"
    },
    {
      "inputs": [],
      "name": "LOCK",
      "outputs": [
        {
          "internalType": "bytes4",
          "name": "",
          "type": "bytes4"
        }
      ],
      "stateMutability": "view",
      "type": "function"
    },
    {
      "inputs": [],
      "name": "LOCK8605463013",
      "outputs": [
        {
          "internalType": "bytes4",
          "name": "",
          "type": "bytes4"
        }
      ],
      "stateMutability": "view",
      "type": "function"
    },
    {
      "inputs": [],
      "name": "ROOT",
      "outputs": [
        {
          "internalType": "bytes4",
          "name": "",
          "type": "bytes4"
        }
      ],
      "stateMutability": "view",
      "type": "function"
    },
    {
      "inputs": [],
      "name": "ROOT4146650865",
      "outputs": [
        {
          "internalType": "bytes4",
          "name": "",
          "type": "bytes4"
        }
      ],
      "stateMutability": "view",
      "type": "function"
    },
    {
      "inputs": [],
      "name": "actionWhenNotPaused",
      "outputs": [
        {
          "internalType": "uint256",
          "name": "",
          "type": "uint256"
        }
      ],
      "stateMutability": "nonpayable",
      "type": "function"
    },
    {
      "inputs": [],
      "name": "actionWhenPaused",
      "outputs": [
        {
          "internalType": "uint256",
          "name": "",
          "type": "uint256"
        }
      ],
      "stateMutability": "nonpayable",
      "type": "function"
    },
    {
      "inputs": [
        {
          "internalType": "bytes4",
          "name": "role",
          "type": "bytes4"
        }
      ],
      "name": "getRoleAdmin",
      "outputs": [
        {
          "internalType": "bytes4",
          "name": "",
          "type": "bytes4"
        }
      ],
      "stateMutability": "view",
      "type": "function"
    },
    {
      "inputs": [
        {
          "internalType": "bytes4",
          "name": "role",
          "type": "bytes4"
        },
        {
          "internalType": "address",
          "name": "account",
          "type": "address"
        }
      ],
      "name": "grantRole",
      "outputs": [],
      "stateMutability": "nonpayable",
      "type": "function"
    },
    {
      "inputs": [
        {
          "internalType": "bytes4[]",
          "name": "roles",
          "type": "bytes4[]"
        },
        {
          "internalType": "address",
          "name": "account",
          "type": "address"
        }
      ],
      "name": "grantRoles",
      "outputs": [],
      "stateMutability": "nonpayable",
      "type": "function"
    },
    {
      "inputs": [
        {
          "internalType": "bytes4",
          "name": "role",
          "type": "bytes4"
        },
        {
          "internalType": "address",
          "name": "account",
          "type": "address"
        }
      ],
      "name": "hasRole",
      "outputs": [
        {
          "internalType": "bool",
          "name": "",
          "type": "bool"
        }
      ],
      "stateMutability": "view",
      "type": "function"
    },
    {
      "inputs": [
        {
          "internalType": "bytes4",
          "name": "role",
          "type": "bytes4"
        }
      ],
      "name": "lockRole",
      "outputs": [],
      "stateMutability": "nonpayable",
      "type": "function"
    },
    {
      "inputs": [],
      "name": "pause",
      "outputs": [],
      "stateMutability": "nonpayable",
      "type": "function"
    },
    {
      "inputs": [],
      "name": "paused",
      "outputs": [
        {
          "internalType": "bool",
          "name": "",
          "type": "bool"
        }
      ],
      "stateMutability": "view",
      "type": "function"
    },
    {
      "inputs": [
        {
          "internalType": "bytes4",
          "name": "role",
          "type": "bytes4"
        },
        {
          "internalType": "address",
          "name": "account",
          "type": "address"
        }
      ],
      "name": "renounceRole",
      "outputs": [],
      "stateMutability": "nonpayable",
      "type": "function"
    },
    {
      "inputs": [
        {
          "internalType": "bytes4",
          "name": "role",
          "type": "bytes4"
        },
        {
          "internalType": "address",
          "name": "account",
          "type": "address"
        }
      ],
      "name": "revokeRole",
      "outputs": [],
      "stateMutability": "nonpayable",
      "type": "function"
    },
    {
      "inputs": [
        {
          "internalType": "bytes4[]",
          "name": "roles",
          "type": "bytes4[]"
        },
        {
          "internalType": "address",
          "name": "account",
          "type": "address"
        }
      ],
      "name": "revokeRoles",
      "outputs": [],
      "stateMutability": "nonpayable",
      "type": "function"
    },
    {
      "inputs": [
        {
          "internalType": "bytes4",
          "name": "role",
          "type": "bytes4"
        },
        {
          "internalType": "bytes4",
          "name": "adminRole",
          "type": "bytes4"
        }
      ],
      "name": "setRoleAdmin",
      "outputs": [],
      "stateMutability": "nonpayable",
      "type": "function"
    },
    {
      "inputs": [],
      "name": "unpause",
      "outputs": [],
      "stateMutability": "nonpayable",
      "type": "function"
    }
  ],
  "bytecode": {
    "object": "0x608060405234801561001057600080fd5b5061001c60003361003d565b61002e6001600160e01b0319806100d4565b6001805460ff19169055610170565b6001600160e01b031982166000908152602081815260408083206001600160a01b038516845290915290205460ff166100d0576001600160e01b031982166000818152602081815260408083206001600160a01b0386168085529252808320805460ff1916600117905551339391927fe6231789d19137da31d0550f4ba9ee379020a8cfb64cb79bf1790c996d2e616591a45b5050565b6001600160e01b03198116610105836001600160e01b03191660009081526020819052604090206001015460e01b90565b6001600160e01b031916146100d0576001600160e01b0319828116600081815260208190526040808220600101805463ffffffff191660e087901c17905551928416927fd348e2220a50b4500ec353f6e802d2f14dd1b5d6786148fd1bbcc570bf92d4739190a35050565b610a8b8061017f6000396000f3fe608060405234801561001057600080fd5b50600436106101115760003560e01c8063687f0e4c116100a2578063ad82110f11610071578063ad82110f146101f7578063ae93c1b51461020a578063de02cde71461021d578063effae35314610230578063ffffffff146101e857600080fd5b8063687f0e4c146101c55780637ddac5f1146101d85780638456cb59146101e0578063a4f0d7d0146101e857600080fd5b806344faded0116100e957806344faded01461017f578063559742d9146101925780635909c12f146101165780635ba5e9f0146101a55780635c975abb146101b857600080fd5b801561011657806310ab94321461013c5780632b1799001461015f5780633f4ba83a14610175575b600080fd5b61011e600081565b6040516001600160e01b031990911681526020015b60405180910390f35b61014f61014a36600461088f565b610243565b6040519015158152602001610133565b610167610256565b604051908152602001610133565b61017d610299565b005b61017d61018d36600461088f565b61035c565b61017d6101a03660046108c2565b61039a565b61011e6101b33660046108c2565b6103d9565b60015461014f9060ff1681565b61017d6101d336600461088f565b6103ea565b610167610445565b61017d610488565b61011e6001600160e01b031981565b61017d6102053660046108f3565b610548565b61017d6102183660046109ca565b6105ca565b61017d61022b36600461088f565b6105fd565b61017d61023e3660046108f3565b610630565b600061024f83836106a5565b9392505050565b60015460009060ff16156102935760015460405163b2cbce4d60e01b815233600482015260ff909116151560248201526044015b60405180910390fd5b50600290565b6102af6000356001600160e01b031916336106a5565b6102eb5760405162461bcd60e51b815260206004820152600d60248201526c1058d8d95cdcc819195b9a5959609a1b604482015260640161028a565b6001805460ff16151514610323576001546040516317ed3a7760e11b815233600482015260ff9091161515602482015260440161028a565b6001805460ff1916905560405160009033907fe8699cf681560fd07de85543bd994263f4557bdc5179dd702f256d15fd083e1d908390a3565b8161036f610369826106da565b336106a5565b61038b5760405162461bcd60e51b815260040161028a906109f4565b61039583836106fc565b505050565b806103a7610369826106da565b6103c35760405162461bcd60e51b815260040161028a906109f4565b6103d5826001600160e01b031961076b565b5050565b60006103e4826106da565b92915050565b6001600160a01b038116331461043b5760405162461bcd60e51b81526020600482015260166024820152752932b737bab731b29037b7363c903337b91039b2b63360511b604482015260640161028a565b6103d582826106fc565b6001805460009160ff909116151514610482576001546040516317ed3a7760e11b815233600482015260ff9091161515602482015260440161028a565b50600190565b61049e6000356001600160e01b031916336106a5565b6104da5760405162461bcd60e51b815260206004820152600d60248201526c1058d8d95cdcc819195b9a5959609a1b604482015260640161028a565b60015460ff161561050f5760015460405163b2cbce4d60e01b815233600482015260ff9091161515602482015260440161028a565b6001805460ff19168117815560405133907fe8699cf681560fd07de85543bd994263f4557bdc5179dd702f256d15fd083e1d90600090a3565b60005b82518110156103955761057961036984838151811061056c5761056c610a18565b60200260200101516106da565b6105955760405162461bcd60e51b815260040161028a906109f4565b6105b88382815181106105aa576105aa610a18565b6020026020010151836106fc565b806105c281610a2e565b91505061054b565b816105d7610369826106da565b6105f35760405162461bcd60e51b815260040161028a906109f4565b610395838361076b565b8161060a610369826106da565b6106265760405162461bcd60e51b815260040161028a906109f4565b61039583836107ea565b60005b82518110156103955761065461036984838151811061056c5761056c610a18565b6106705760405162461bcd60e51b815260040161028a906109f4565b61069383828151811061068557610685610a18565b6020026020010151836107ea565b8061069d81610a2e565b915050610633565b6001600160e01b031982166000908152602081815260408083206001600160a01b038516845290915290205460ff1692915050565b6001600160e01b03191660009081526020819052604090206001015460e01b90565b61070682826106a5565b156103d5576001600160e01b031982166000818152602081815260408083206001600160a01b0386168085529252808320805460ff1916905551339391927f4ddc7b757e7bdd7254a9cd39452d307a52761bc824625c6a33104a075d8099e691a45050565b6001600160e01b0319811661077f836106da565b6001600160e01b031916146103d5576001600160e01b0319828116600081815260208190526040808220600101805463ffffffff191660e087901c17905551928416927fd348e2220a50b4500ec353f6e802d2f14dd1b5d6786148fd1bbcc570bf92d4739190a35050565b6107f482826106a5565b6103d5576001600160e01b031982166000818152602081815260408083206001600160a01b0386168085529252808320805460ff1916600117905551339391927fe6231789d19137da31d0550f4ba9ee379020a8cfb64cb79bf1790c996d2e616591a45050565b80356001600160e01b03198116811461087357600080fd5b919050565b80356001600160a01b038116811461087357600080fd5b600080604083850312156108a257600080fd5b6108ab8361085b565b91506108b960208401610878565b90509250929050565b6000602082840312156108d457600080fd5b61024f8261085b565b634e487b7160e01b600052604160045260246000fd5b6000806040838503121561090657600080fd5b823567ffffffffffffffff8082111561091e57600080fd5b818501915085601f83011261093257600080fd5b8135602082821115610946576109466108dd565b8160051b604051601f19603f8301168101818110868211171561096b5761096b6108dd565b60405292835281830193508481018201928984111561098957600080fd5b948201945b838610156109ae5761099f8661085b565b8552948201949382019361098e565b96506109bd9050878201610878565b9450505050509250929050565b600080604083850312156109dd57600080fd5b6109e68361085b565b91506108b96020840161085b565b6020808252600a908201526927b7363c9030b236b4b760b11b604082015260600190565b634e487b7160e01b600052603260045260246000fd5b600060018201610a4e57634e487b7160e01b600052601160045260246000fd5b506001019056fea264697066735822122009cc87d664113c415cf1a18fa1e724c4bbd5eb24069d4b157977c0b65ca64d6764736f6c634300080e0033",
    "linkReferences": {}
  },
  "methodIdentifiers": {
    "LOCK()": "a4f0d7d0",
    "LOCK8605463013()": "ffffffff",
    "ROOT()": "5909c12f",
    "ROOT4146650865()": "00000000",
    "actionWhenNotPaused()": "2b179900",
    "actionWhenPaused()": "7ddac5f1",
    "getRoleAdmin(bytes4)": "5ba5e9f0",
    "grantRole(bytes4,address)": "de02cde7",
    "grantRoles(bytes4[],address)": "effae353",
    "hasRole(bytes4,address)": "10ab9432",
    "lockRole(bytes4)": "559742d9",
    "pause()": "8456cb59",
    "paused()": "5c975abb",
    "renounceRole(bytes4,address)": "687f0e4c",
    "revokeRole(bytes4,address)": "44faded0",
    "revokeRoles(bytes4[],address)": "ad82110f",
    "setRoleAdmin(bytes4,bytes4)": "ae93c1b5",
    "unpause()": "3f4ba83a"
  },
  "id": 18
}