{
  "abi": [
    {
      "inputs": [],
      "stateMutability": "nonpayable",
      "type": "constructor"
    },
    {
      "anonymous": false,
      "inputs": [
        {
          "indexed": true,
          "internalType": "address",
          "name": "account",
          "type": "address"
        },
        {
          "indexed": true,
          "internalType": "bool",
          "name": "state",
          "type": "bool"
        }
      ],
      "name": "PausedState",
      "type": "event"
    },
    {
      "anonymous": false,
      "inputs": [
        {
          "indexed": true,
          "internalType": "bytes4",
          "name": "role",
          "type": "bytes4"
        },
        {
          "indexed": true,
          "internalType": "bytes4",
          "name": "newAdminRole",
          "type": "bytes4"
        }
      ],
      "name": "RoleAdminChanged",
      "type": "event"
    },
    {
      "anonymous": false,
      "inputs": [
        {
          "indexed": true,
          "internalType": "bytes4",
          "name": "role",
          "type": "bytes4"
        },
        {
          "indexed": true,
          "internalType": "address",
          "name": "account",
          "type": "address"
        },
        {
          "indexed": true,
          "internalType": "address",
          "name": "sender",
          "type": "address"
        }
      ],
      "name": "RoleGranted",
      "type": "event"
    },
    {
      "anonymous": false,
      "inputs": [
        {
          "indexed": true,
          "internalType": "bytes4",
          "name": "role",
          "type": "bytes4"
        },
        {
          "indexed": true,
          "internalType": "address",
          "name": "account",
          "type": "address"
        },
        {
          "indexed": true,
          "internalType": "address",
          "name": "sender",
          "type": "address"
        }
      ],
      "name": "RoleRevoked",
      "type": "event"
    },
    {
      "inputs": [],
      "name": "LOCK",
      "outputs": [
        {
          "internalType": "bytes4",
          "name": "",
          "type": "bytes4"
        }
      ],
      "stateMutability": "view",
      "type": "function"
    },
    {
      "inputs": [],
      "name": "LOCK8605463013",
      "outputs": [
        {
          "internalType": "bytes4",
          "name": "",
          "type": "bytes4"
        }
      ],
      "stateMutability": "view",
      "type": "function"
    },
    {
      "inputs": [],
      "name": "ROOT",
      "outputs": [
        {
          "internalType": "bytes4",
          "name": "",
          "type": "bytes4"
        }
      ],
      "stateMutability": "view",
      "type": "function"
    },
    {
      "inputs": [],
      "name": "ROOT4146650865",
      "outputs": [
        {
          "internalType": "bytes4",
          "name": "",
          "type": "bytes4"
        }
      ],
      "stateMutability": "view",
      "type": "function"
    },
    {
      "inputs": [],
      "name": "_paused",
      "outputs": [
        {
          "internalType": "bool",
          "name": "",
          "type": "bool"
        }
      ],
      "stateMutability": "view",
      "type": "function"
    },
    {
      "inputs": [
        {
          "internalType": "bytes4",
          "name": "role",
          "type": "bytes4"
        }
      ],
      "name": "getRoleAdmin",
      "outputs": [
        {
          "internalType": "bytes4",
          "name": "",
          "type": "bytes4"
        }
      ],
      "stateMutability": "view",
      "type": "function"
    },
    {
      "inputs": [
        {
          "internalType": "bytes4",
          "name": "role",
          "type": "bytes4"
        },
        {
          "internalType": "address",
          "name": "account",
          "type": "address"
        }
      ],
      "name": "grantRole",
      "outputs": [],
      "stateMutability": "nonpayable",
      "type": "function"
    },
    {
      "inputs": [
        {
          "internalType": "bytes4[]",
          "name": "roles",
          "type": "bytes4[]"
        },
        {
          "internalType": "address",
          "name": "account",
          "type": "address"
        }
      ],
      "name": "grantRoles",
      "outputs": [],
      "stateMutability": "nonpayable",
      "type": "function"
    },
    {
      "inputs": [
        {
          "internalType": "bytes4",
          "name": "role",
          "type": "bytes4"
        },
        {
          "internalType": "address",
          "name": "account",
          "type": "address"
        }
      ],
      "name": "hasRole",
      "outputs": [
        {
          "internalType": "bool",
          "name": "",
          "type": "bool"
        }
      ],
      "stateMutability": "view",
      "type": "function"
    },
    {
      "inputs": [
        {
          "internalType": "bytes4",
          "name": "role",
          "type": "bytes4"
        }
      ],
      "name": "lockRole",
      "outputs": [],
      "stateMutability": "nonpayable",
      "type": "function"
    },
    {
      "inputs": [],
      "name": "paused",
      "outputs": [
        {
          "internalType": "bool",
          "name": "",
          "type": "bool"
        }
      ],
      "stateMutability": "view",
      "type": "function"
    },
    {
      "inputs": [
        {
          "internalType": "bytes4",
          "name": "role",
          "type": "bytes4"
        },
        {
          "internalType": "address",
          "name": "account",
          "type": "address"
        }
      ],
      "name": "renounceRole",
      "outputs": [],
      "stateMutability": "nonpayable",
      "type": "function"
    },
    {
      "inputs": [
        {
          "internalType": "bytes4",
          "name": "role",
          "type": "bytes4"
        },
        {
          "internalType": "address",
          "name": "account",
          "type": "address"
        }
      ],
      "name": "revokeRole",
      "outputs": [],
      "stateMutability": "nonpayable",
      "type": "function"
    },
    {
      "inputs": [
        {
          "internalType": "bytes4[]",
          "name": "roles",
          "type": "bytes4[]"
        },
        {
          "internalType": "address",
          "name": "account",
          "type": "address"
        }
      ],
      "name": "revokeRoles",
      "outputs": [],
      "stateMutability": "nonpayable",
      "type": "function"
    },
    {
      "inputs": [
        {
          "internalType": "bytes4",
          "name": "role",
          "type": "bytes4"
        },
        {
          "internalType": "bytes4",
          "name": "adminRole",
          "type": "bytes4"
        }
      ],
      "name": "setRoleAdmin",
      "outputs": [],
      "stateMutability": "nonpayable",
      "type": "function"
    }
  ],
  "bytecode": {
    "object": "0x608060405234801561001057600080fd5b5061001c60003361003d565b61002e6001600160e01b0319806100d4565b6001805460ff19169055610170565b6001600160e01b031982166000908152602081815260408083206001600160a01b038516845290915290205460ff166100d0576001600160e01b031982166000818152602081815260408083206001600160a01b0386168085529252808320805460ff1916600117905551339391927fe6231789d19137da31d0550f4ba9ee379020a8cfb64cb79bf1790c996d2e616591a45b5050565b6001600160e01b03198116610105836001600160e01b03191660009081526020819052604090206001015460e01b90565b6001600160e01b031916146100d0576001600160e01b0319828116600081815260208190526040808220600101805463ffffffff191660e087901c17905551928416927fd348e2220a50b4500ec353f6e802d2f14dd1b5d6786148fd1bbcc570bf92d4739190a35050565b6108478061017f6000396000f3fe608060405234801561001057600080fd5b50600436106100f05760003560e01c80635c975abb11610097578063ae93c1b511610066578063ae93c1b5146101c6578063de02cde7146101d9578063effae353146101ec578063ffffffff146101a457600080fd5b80635c975abb14610186578063687f0e4c14610191578063a4f0d7d0146101a4578063ad82110f146101b357600080fd5b806344faded0116100d357806344faded01461014b578063559742d9146101605780635909c12f146100f55780635ba5e9f01461017357600080fd5b80156100f557806310ab94321461011b57806316c61ccc1461013e575b600080fd5b6100fd600081565b6040516001600160e01b031990911681526020015b60405180910390f35b61012e61012936600461064b565b6101ff565b6040519015158152602001610112565b60015461012e9060ff1681565b61015e61015936600461064b565b610212565b005b61015e61016e36600461067e565b610259565b6100fd61018136600461067e565b610298565b60015460ff1661012e565b61015e61019f36600461064b565b6102a9565b6100fd6001600160e01b031981565b61015e6101c13660046106af565b610304565b61015e6101d4366004610786565b610386565b61015e6101e736600461064b565b6103b9565b61015e6101fa3660046106af565b6103ec565b600061020b8383610461565b9392505050565b8161022561021f82610496565b33610461565b61024a5760405162461bcd60e51b8152600401610241906107b0565b60405180910390fd5b61025483836104b8565b505050565b8061026661021f82610496565b6102825760405162461bcd60e51b8152600401610241906107b0565b610294826001600160e01b0319610527565b5050565b60006102a382610496565b92915050565b6001600160a01b03811633146102fa5760405162461bcd60e51b81526020600482015260166024820152752932b737bab731b29037b7363c903337b91039b2b63360511b6044820152606401610241565b61029482826104b8565b60005b82518110156102545761033561021f848381518110610328576103286107d4565b6020026020010151610496565b6103515760405162461bcd60e51b8152600401610241906107b0565b610374838281518110610366576103666107d4565b6020026020010151836104b8565b8061037e816107ea565b915050610307565b8161039361021f82610496565b6103af5760405162461bcd60e51b8152600401610241906107b0565b6102548383610527565b816103c661021f82610496565b6103e25760405162461bcd60e51b8152600401610241906107b0565b61025483836105a6565b60005b82518110156102545761041061021f848381518110610328576103286107d4565b61042c5760405162461bcd60e51b8152600401610241906107b0565b61044f838281518110610441576104416107d4565b6020026020010151836105a6565b80610459816107ea565b9150506103ef565b6001600160e01b031982166000908152602081815260408083206001600160a01b038516845290915290205460ff1692915050565b6001600160e01b03191660009081526020819052604090206001015460e01b90565b6104c28282610461565b15610294576001600160e01b031982166000818152602081815260408083206001600160a01b0386168085529252808320805460ff1916905551339391927f4ddc7b757e7bdd7254a9cd39452d307a52761bc824625c6a33104a075d8099e691a45050565b6001600160e01b0319811661053b83610496565b6001600160e01b03191614610294576001600160e01b0319828116600081815260208190526040808220600101805463ffffffff191660e087901c17905551928416927fd348e2220a50b4500ec353f6e802d2f14dd1b5d6786148fd1bbcc570bf92d4739190a35050565b6105b08282610461565b610294576001600160e01b031982166000818152602081815260408083206001600160a01b0386168085529252808320805460ff1916600117905551339391927fe6231789d19137da31d0550f4ba9ee379020a8cfb64cb79bf1790c996d2e616591a45050565b80356001600160e01b03198116811461062f57600080fd5b919050565b80356001600160a01b038116811461062f57600080fd5b6000806040838503121561065e57600080fd5b61066783610617565b915061067560208401610634565b90509250929050565b60006020828403121561069057600080fd5b61020b82610617565b634e487b7160e01b600052604160045260246000fd5b600080604083850312156106c257600080fd5b823567ffffffffffffffff808211156106da57600080fd5b818501915085601f8301126106ee57600080fd5b813560208282111561070257610702610699565b8160051b604051601f19603f8301168101818110868211171561072757610727610699565b60405292835281830193508481018201928984111561074557600080fd5b948201945b8386101561076a5761075b86610617565b8552948201949382019361074a565b96506107799050878201610634565b9450505050509250929050565b6000806040838503121561079957600080fd5b6107a283610617565b915061067560208401610617565b6020808252600a908201526927b7363c9030b236b4b760b11b604082015260600190565b634e487b7160e01b600052603260045260246000fd5b60006001820161080a57634e487b7160e01b600052601160045260246000fd5b506001019056fea2646970667358221220b2e7f6b9d7da87271189fc947b3af5570018b5068434f2bb1a632c1835b1788064736f6c634300080e0033",
    "linkReferences": {}
  },
  "methodIdentifiers": {
    "LOCK()": "a4f0d7d0",
    "LOCK8605463013()": "ffffffff",
    "ROOT()": "5909c12f",
    "ROOT4146650865()": "00000000",
    "_paused()": "16c61ccc",
    "getRoleAdmin(bytes4)": "5ba5e9f0",
    "grantRole(bytes4,address)": "de02cde7",
    "grantRoles(bytes4[],address)": "effae353",
    "hasRole(bytes4,address)": "10ab9432",
    "lockRole(bytes4)": "559742d9",
    "paused()": "5c975abb",
    "renounceRole(bytes4,address)": "687f0e4c",
    "revokeRole(bytes4,address)": "44faded0",
    "revokeRoles(bytes4[],address)": "ad82110f",
    "setRoleAdmin(bytes4,bytes4)": "ae93c1b5"
  },
  "id": 7
}