{
  "abi": [
    {
      "inputs": [],
      "stateMutability": "nonpayable",
      "type": "constructor"
    },
    {
      "anonymous": false,
      "inputs": [
        {
          "indexed": true,
          "internalType": "address",
          "name": "account",
          "type": "address"
        },
        {
          "indexed": true,
          "internalType": "bool",
          "name": "state",
          "type": "bool"
        }
      ],
      "name": "PausedState",
      "type": "event"
    },
    {
      "anonymous": false,
      "inputs": [
        {
          "indexed": true,
          "internalType": "bytes4",
          "name": "role",
          "type": "bytes4"
        },
        {
          "indexed": true,
          "internalType": "bytes4",
          "name": "newAdminRole",
          "type": "bytes4"
        }
      ],
      "name": "RoleAdminChanged",
      "type": "event"
    },
    {
      "anonymous": false,
      "inputs": [
        {
          "indexed": true,
          "internalType": "bytes4",
          "name": "role",
          "type": "bytes4"
        },
        {
          "indexed": true,
          "internalType": "address",
          "name": "account",
          "type": "address"
        },
        {
          "indexed": true,
          "internalType": "address",
          "name": "sender",
          "type": "address"
        }
      ],
      "name": "RoleGranted",
      "type": "event"
    },
    {
      "anonymous": false,
      "inputs": [
        {
          "indexed": true,
          "internalType": "bytes4",
          "name": "role",
          "type": "bytes4"
        },
        {
          "indexed": true,
          "internalType": "address",
          "name": "account",
          "type": "address"
        },
        {
          "indexed": true,
          "internalType": "address",
          "name": "sender",
          "type": "address"
        }
      ],
      "name": "RoleRevoked",
      "type": "event"
    },
    {
      "inputs": [],
      "name": "LOCK",
      "outputs": [
        {
          "internalType": "bytes4",
          "name": "",
          "type": "bytes4"
        }
      ],
      "stateMutability": "view",
      "type": "function"
    },
    {
      "inputs": [],
      "name": "LOCK8605463013",
      "outputs": [
        {
          "internalType": "bytes4",
          "name": "",
          "type": "bytes4"
        }
      ],
      "stateMutability": "view",
      "type": "function"
    },
    {
      "inputs": [],
      "name": "ROOT",
      "outputs": [
        {
          "internalType": "bytes4",
          "name": "",
          "type": "bytes4"
        }
      ],
      "stateMutability": "view",
      "type": "function"
    },
    {
      "inputs": [],
      "name": "ROOT4146650865",
      "outputs": [
        {
          "internalType": "bytes4",
          "name": "",
          "type": "bytes4"
        }
      ],
      "stateMutability": "view",
      "type": "function"
    },
    {
      "inputs": [
        {
          "internalType": "bytes4",
          "name": "role",
          "type": "bytes4"
        }
      ],
      "name": "getRoleAdmin",
      "outputs": [
        {
          "internalType": "bytes4",
          "name": "",
          "type": "bytes4"
        }
      ],
      "stateMutability": "view",
      "type": "function"
    },
    {
      "inputs": [
        {
          "internalType": "bytes4",
          "name": "role",
          "type": "bytes4"
        },
        {
          "internalType": "address",
          "name": "account",
          "type": "address"
        }
      ],
      "name": "grantRole",
      "outputs": [],
      "stateMutability": "nonpayable",
      "type": "function"
    },
    {
      "inputs": [
        {
          "internalType": "bytes4[]",
          "name": "roles",
          "type": "bytes4[]"
        },
        {
          "internalType": "address",
          "name": "account",
          "type": "address"
        }
      ],
      "name": "grantRoles",
      "outputs": [],
      "stateMutability": "nonpayable",
      "type": "function"
    },
    {
      "inputs": [
        {
          "internalType": "bytes4",
          "name": "role",
          "type": "bytes4"
        },
        {
          "internalType": "address",
          "name": "account",
          "type": "address"
        }
      ],
      "name": "hasRole",
      "outputs": [
        {
          "internalType": "bool",
          "name": "",
          "type": "bool"
        }
      ],
      "stateMutability": "view",
      "type": "function"
    },
    {
      "inputs": [
        {
          "internalType": "bytes4",
          "name": "role",
          "type": "bytes4"
        }
      ],
      "name": "lockRole",
      "outputs": [],
      "stateMutability": "nonpayable",
      "type": "function"
    },
    {
      "inputs": [],
      "name": "pause",
      "outputs": [],
      "stateMutability": "nonpayable",
      "type": "function"
    },
    {
      "inputs": [],
      "name": "paused",
      "outputs": [
        {
          "internalType": "bool",
          "name": "",
          "type": "bool"
        }
      ],
      "stateMutability": "view",
      "type": "function"
    },
    {
      "inputs": [
        {
          "internalType": "bytes4",
          "name": "role",
          "type": "bytes4"
        },
        {
          "internalType": "address",
          "name": "account",
          "type": "address"
        }
      ],
      "name": "renounceRole",
      "outputs": [],
      "stateMutability": "nonpayable",
      "type": "function"
    },
    {
      "inputs": [
        {
          "internalType": "bytes4",
          "name": "role",
          "type": "bytes4"
        },
        {
          "internalType": "address",
          "name": "account",
          "type": "address"
        }
      ],
      "name": "revokeRole",
      "outputs": [],
      "stateMutability": "nonpayable",
      "type": "function"
    },
    {
      "inputs": [
        {
          "internalType": "bytes4[]",
          "name": "roles",
          "type": "bytes4[]"
        },
        {
          "internalType": "address",
          "name": "account",
          "type": "address"
        }
      ],
      "name": "revokeRoles",
      "outputs": [],
      "stateMutability": "nonpayable",
      "type": "function"
    },
    {
      "inputs": [
        {
          "internalType": "bytes4",
          "name": "role",
          "type": "bytes4"
        },
        {
          "internalType": "bytes4",
          "name": "adminRole",
          "type": "bytes4"
        }
      ],
      "name": "setRoleAdmin",
      "outputs": [],
      "stateMutability": "nonpayable",
      "type": "function"
    },
    {
      "inputs": [],
      "name": "unpause",
      "outputs": [],
      "stateMutability": "nonpayable",
      "type": "function"
    }
  ],
  "bytecode": {
    "object": "0x608060405234801561001057600080fd5b5061001c60003361003d565b61002e6001600160e01b0319806100d4565b6001805460ff19169055610170565b6001600160e01b031982166000908152602081815260408083206001600160a01b038516845290915290205460ff166100d0576001600160e01b031982166000818152602081815260408083206001600160a01b0386168085529252808320805460ff1916600117905551339391927fe6231789d19137da31d0550f4ba9ee379020a8cfb64cb79bf1790c996d2e616591a45b5050565b6001600160e01b03198116610105836001600160e01b03191660009081526020819052604090206001015460e01b90565b6001600160e01b031916146100d0576001600160e01b0319828116600081815260208190526040808220600101805463ffffffff191660e087901c17905551928416927fd348e2220a50b4500ec353f6e802d2f14dd1b5d6786148fd1bbcc570bf92d4739190a35050565b6109fc8061017f6000396000f3fe608060405234801561001057600080fd5b50600436106100fb5760003560e01c8063687f0e4c11610097578063ae93c1b511610066578063ae93c1b5146101d6578063de02cde7146101e9578063effae353146101fc578063ffffffff146101b457600080fd5b8063687f0e4c146101995780638456cb59146101ac578063a4f0d7d0146101b4578063ad82110f146101c357600080fd5b8063559742d9116100d3578063559742d9146101665780635909c12f146101005780635ba5e9f0146101795780635c975abb1461018c57600080fd5b801561010057806310ab9432146101265780633f4ba83a1461014957806344faded014610153575b600080fd5b610108600081565b6040516001600160e01b031990911681526020015b60405180910390f35b610139610134366004610800565b61020f565b604051901515815260200161011d565b610151610222565b005b610151610161366004610800565b6102ff565b610151610174366004610833565b61033d565b610108610187366004610833565b61037c565b6001546101399060ff1681565b6101516101a7366004610800565b61038d565b6101516103e8565b6101086001600160e01b031981565b6101516101d1366004610864565b6104b9565b6101516101e436600461093b565b61053b565b6101516101f7366004610800565b61056e565b61015161020a366004610864565b6105a1565b600061021b8383610616565b9392505050565b6102386000356001600160e01b03191633610616565b6102795760405162461bcd60e51b815260206004820152600d60248201526c1058d8d95cdcc819195b9a5959609a1b60448201526064015b60405180910390fd5b6001805460ff161515146102c65760405162461bcd60e51b815260206004820152601460248201527314185d5cd8589b194e881b9bdd081c185d5cd95960621b6044820152606401610270565b6001805460ff1916905560405160009033907f58d2ef77fba2bce4aeba87de8a34fc1856888f6a08dad8ece132da226eb23714908390a3565b8161031261030c8261064b565b33610616565b61032e5760405162461bcd60e51b815260040161027090610965565b610338838361066d565b505050565b8061034a61030c8261064b565b6103665760405162461bcd60e51b815260040161027090610965565b610378826001600160e01b03196106dc565b5050565b60006103878261064b565b92915050565b6001600160a01b03811633146103de5760405162461bcd60e51b81526020600482015260166024820152752932b737bab731b29037b7363c903337b91039b2b63360511b6044820152606401610270565b610378828261066d565b6103fe6000356001600160e01b03191633610616565b61043a5760405162461bcd60e51b815260206004820152600d60248201526c1058d8d95cdcc819195b9a5959609a1b6044820152606401610270565b60015460ff16156104805760405162461bcd60e51b815260206004820152601060248201526f14185d5cd8589b194e881c185d5cd95960821b6044820152606401610270565b6001805460ff19168117815560405133907f58d2ef77fba2bce4aeba87de8a34fc1856888f6a08dad8ece132da226eb2371490600090a3565b60005b8251811015610338576104ea61030c8483815181106104dd576104dd610989565b602002602001015161064b565b6105065760405162461bcd60e51b815260040161027090610965565b61052983828151811061051b5761051b610989565b60200260200101518361066d565b806105338161099f565b9150506104bc565b8161054861030c8261064b565b6105645760405162461bcd60e51b815260040161027090610965565b61033883836106dc565b8161057b61030c8261064b565b6105975760405162461bcd60e51b815260040161027090610965565b610338838361075b565b60005b8251811015610338576105c561030c8483815181106104dd576104dd610989565b6105e15760405162461bcd60e51b815260040161027090610965565b6106048382815181106105f6576105f6610989565b60200260200101518361075b565b8061060e8161099f565b9150506105a4565b6001600160e01b031982166000908152602081815260408083206001600160a01b038516845290915290205460ff1692915050565b6001600160e01b03191660009081526020819052604090206001015460e01b90565b6106778282610616565b15610378576001600160e01b031982166000818152602081815260408083206001600160a01b0386168085529252808320805460ff1916905551339391927f4ddc7b757e7bdd7254a9cd39452d307a52761bc824625c6a33104a075d8099e691a45050565b6001600160e01b031981166106f08361064b565b6001600160e01b03191614610378576001600160e01b0319828116600081815260208190526040808220600101805463ffffffff191660e087901c17905551928416927fd348e2220a50b4500ec353f6e802d2f14dd1b5d6786148fd1bbcc570bf92d4739190a35050565b6107658282610616565b610378576001600160e01b031982166000818152602081815260408083206001600160a01b0386168085529252808320805460ff1916600117905551339391927fe6231789d19137da31d0550f4ba9ee379020a8cfb64cb79bf1790c996d2e616591a45050565b80356001600160e01b0319811681146107e457600080fd5b919050565b80356001600160a01b03811681146107e457600080fd5b6000806040838503121561081357600080fd5b61081c836107cc565b915061082a602084016107e9565b90509250929050565b60006020828403121561084557600080fd5b61021b826107cc565b634e487b7160e01b600052604160045260246000fd5b6000806040838503121561087757600080fd5b823567ffffffffffffffff8082111561088f57600080fd5b818501915085601f8301126108a357600080fd5b81356020828211156108b7576108b761084e565b8160051b604051601f19603f830116810181811086821117156108dc576108dc61084e565b6040529283528183019350848101820192898411156108fa57600080fd5b948201945b8386101561091f57610910866107cc565b855294820194938201936108ff565b965061092e90508782016107e9565b9450505050509250929050565b6000806040838503121561094e57600080fd5b610957836107cc565b915061082a602084016107cc565b6020808252600a908201526927b7363c9030b236b4b760b11b604082015260600190565b634e487b7160e01b600052603260045260246000fd5b6000600182016109bf57634e487b7160e01b600052601160045260246000fd5b506001019056fea2646970667358221220c69a95787077590aa9f11f1e467cf34f02b56cc60372f24ef116b7ba645f189264736f6c634300080e0033",
    "linkReferences": {}
  },
  "methodIdentifiers": {
    "LOCK()": "a4f0d7d0",
    "LOCK8605463013()": "ffffffff",
    "ROOT()": "5909c12f",
    "ROOT4146650865()": "00000000",
    "getRoleAdmin(bytes4)": "5ba5e9f0",
    "grantRole(bytes4,address)": "de02cde7",
    "grantRoles(bytes4[],address)": "effae353",
    "hasRole(bytes4,address)": "10ab9432",
    "lockRole(bytes4)": "559742d9",
    "pause()": "8456cb59",
    "paused()": "5c975abb",
    "renounceRole(bytes4,address)": "687f0e4c",
    "revokeRole(bytes4,address)": "44faded0",
    "revokeRoles(bytes4[],address)": "ad82110f",
    "setRoleAdmin(bytes4,bytes4)": "ae93c1b5",
    "unpause()": "3f4ba83a"
  },
  "id": 11
}