{
  "abi": [
    {
      "inputs": [],
      "stateMutability": "nonpayable",
      "type": "constructor"
    },
    {
      "anonymous": false,
      "inputs": [
        {
          "indexed": true,
          "internalType": "bytes4",
          "name": "role",
          "type": "bytes4"
        },
        {
          "indexed": true,
          "internalType": "bytes4",
          "name": "newAdminRole",
          "type": "bytes4"
        }
      ],
      "name": "RoleAdminChanged",
      "type": "event"
    },
    {
      "anonymous": false,
      "inputs": [
        {
          "indexed": true,
          "internalType": "bytes4",
          "name": "role",
          "type": "bytes4"
        },
        {
          "indexed": true,
          "internalType": "address",
          "name": "account",
          "type": "address"
        },
        {
          "indexed": true,
          "internalType": "address",
          "name": "sender",
          "type": "address"
        }
      ],
      "name": "RoleGranted",
      "type": "event"
    },
    {
      "anonymous": false,
      "inputs": [
        {
          "indexed": true,
          "internalType": "bytes4",
          "name": "role",
          "type": "bytes4"
        },
        {
          "indexed": true,
          "internalType": "address",
          "name": "account",
          "type": "address"
        },
        {
          "indexed": true,
          "internalType": "address",
          "name": "sender",
          "type": "address"
        }
      ],
      "name": "RoleRevoked",
      "type": "event"
    },
    {
      "inputs": [],
      "name": "LOCK",
      "outputs": [
        {
          "internalType": "bytes4",
          "name": "",
          "type": "bytes4"
        }
      ],
      "stateMutability": "view",
      "type": "function"
    },
    {
      "inputs": [],
      "name": "LOCK8605463013",
      "outputs": [
        {
          "internalType": "bytes4",
          "name": "",
          "type": "bytes4"
        }
      ],
      "stateMutability": "view",
      "type": "function"
    },
    {
      "inputs": [],
      "name": "ROOT",
      "outputs": [
        {
          "internalType": "bytes4",
          "name": "",
          "type": "bytes4"
        }
      ],
      "stateMutability": "view",
      "type": "function"
    },
    {
      "inputs": [],
      "name": "ROOT4146650865",
      "outputs": [
        {
          "internalType": "bytes4",
          "name": "",
          "type": "bytes4"
        }
      ],
      "stateMutability": "view",
      "type": "function"
    },
    {
      "inputs": [
        {
          "internalType": "bytes4",
          "name": "role",
          "type": "bytes4"
        }
      ],
      "name": "getRoleAdmin",
      "outputs": [
        {
          "internalType": "bytes4",
          "name": "",
          "type": "bytes4"
        }
      ],
      "stateMutability": "view",
      "type": "function"
    },
    {
      "inputs": [
        {
          "internalType": "bytes4",
          "name": "role",
          "type": "bytes4"
        },
        {
          "internalType": "address",
          "name": "account",
          "type": "address"
        }
      ],
      "name": "grantRole",
      "outputs": [],
      "stateMutability": "nonpayable",
      "type": "function"
    },
    {
      "inputs": [
        {
          "internalType": "bytes4[]",
          "name": "roles",
          "type": "bytes4[]"
        },
        {
          "internalType": "address",
          "name": "account",
          "type": "address"
        }
      ],
      "name": "grantRoles",
      "outputs": [],
      "stateMutability": "nonpayable",
      "type": "function"
    },
    {
      "inputs": [
        {
          "internalType": "bytes4",
          "name": "role",
          "type": "bytes4"
        },
        {
          "internalType": "address",
          "name": "account",
          "type": "address"
        }
      ],
      "name": "hasRole",
      "outputs": [
        {
          "internalType": "bool",
          "name": "",
          "type": "bool"
        }
      ],
      "stateMutability": "view",
      "type": "function"
    },
    {
      "inputs": [
        {
          "internalType": "bytes4",
          "name": "role",
          "type": "bytes4"
        }
      ],
      "name": "lockRole",
      "outputs": [],
      "stateMutability": "nonpayable",
      "type": "function"
    },
    {
      "inputs": [
        {
          "internalType": "bytes4",
          "name": "role",
          "type": "bytes4"
        },
        {
          "internalType": "address",
          "name": "account",
          "type": "address"
        }
      ],
      "name": "renounceRole",
      "outputs": [],
      "stateMutability": "nonpayable",
      "type": "function"
    },
    {
      "inputs": [
        {
          "internalType": "bytes4",
          "name": "role",
          "type": "bytes4"
        },
        {
          "internalType": "address",
          "name": "account",
          "type": "address"
        }
      ],
      "name": "revokeRole",
      "outputs": [],
      "stateMutability": "nonpayable",
      "type": "function"
    },
    {
      "inputs": [
        {
          "internalType": "bytes4[]",
          "name": "roles",
          "type": "bytes4[]"
        },
        {
          "internalType": "address",
          "name": "account",
          "type": "address"
        }
      ],
      "name": "revokeRoles",
      "outputs": [],
      "stateMutability": "nonpayable",
      "type": "function"
    },
    {
      "inputs": [
        {
          "internalType": "bytes4",
          "name": "role",
          "type": "bytes4"
        },
        {
          "internalType": "bytes4",
          "name": "adminRole",
          "type": "bytes4"
        }
      ],
      "name": "setRoleAdmin",
      "outputs": [],
      "stateMutability": "nonpayable",
      "type": "function"
    }
  ],
  "bytecode": {
    "object": "0x608060405234801561001057600080fd5b5061001c600033610033565b61002e6001600160e01b0319806100ca565b610166565b6001600160e01b031982166000908152602081815260408083206001600160a01b038516845290915290205460ff166100c6576001600160e01b031982166000818152602081815260408083206001600160a01b0386168085529252808320805460ff1916600117905551339391927fe6231789d19137da31d0550f4ba9ee379020a8cfb64cb79bf1790c996d2e616591a45b5050565b6001600160e01b031981166100fb836001600160e01b03191660009081526020819052604090206001015460e01b90565b6001600160e01b031916146100c6576001600160e01b0319828116600081815260208190526040808220600101805463ffffffff191660e087901c17905551928416927fd348e2220a50b4500ec353f6e802d2f14dd1b5d6786148fd1bbcc570bf92d4739190a35050565b610809806101756000396000f3fe608060405234801561001057600080fd5b50600436106100ca5760003560e01c8063687f0e4c1161008c578063ae93c1b511610066578063ae93c1b514610188578063de02cde71461019b578063effae353146101ae578063ffffffff1461016657600080fd5b8063687f0e4c14610153578063a4f0d7d014610166578063ad82110f1461017557600080fd5b80156100cf57806310ab9432146100f557806344faded014610118578063559742d91461012d5780635909c12f146100cf5780635ba5e9f014610140575b600080fd5b6100d7600081565b6040516001600160e01b031990911681526020015b60405180910390f35b61010861010336600461060d565b6101c1565b60405190151581526020016100ec565b61012b61012636600461060d565b6101d4565b005b61012b61013b366004610640565b61021b565b6100d761014e366004610640565b61025a565b61012b61016136600461060d565b61026b565b6100d76001600160e01b031981565b61012b610183366004610671565b6102c6565b61012b610196366004610748565b610348565b61012b6101a936600461060d565b61037b565b61012b6101bc366004610671565b6103ae565b60006101cd8383610423565b9392505050565b816101e76101e182610458565b33610423565b61020c5760405162461bcd60e51b815260040161020390610772565b60405180910390fd5b610216838361047a565b505050565b806102286101e182610458565b6102445760405162461bcd60e51b815260040161020390610772565b610256826001600160e01b03196104e9565b5050565b600061026582610458565b92915050565b6001600160a01b03811633146102bc5760405162461bcd60e51b81526020600482015260166024820152752932b737bab731b29037b7363c903337b91039b2b63360511b6044820152606401610203565b610256828261047a565b60005b8251811015610216576102f76101e18483815181106102ea576102ea610796565b6020026020010151610458565b6103135760405162461bcd60e51b815260040161020390610772565b61033683828151811061032857610328610796565b60200260200101518361047a565b80610340816107ac565b9150506102c9565b816103556101e182610458565b6103715760405162461bcd60e51b815260040161020390610772565b61021683836104e9565b816103886101e182610458565b6103a45760405162461bcd60e51b815260040161020390610772565b6102168383610568565b60005b8251811015610216576103d26101e18483815181106102ea576102ea610796565b6103ee5760405162461bcd60e51b815260040161020390610772565b61041183828151811061040357610403610796565b602002602001015183610568565b8061041b816107ac565b9150506103b1565b6001600160e01b031982166000908152602081815260408083206001600160a01b038516845290915290205460ff1692915050565b6001600160e01b03191660009081526020819052604090206001015460e01b90565b6104848282610423565b15610256576001600160e01b031982166000818152602081815260408083206001600160a01b0386168085529252808320805460ff1916905551339391927f4ddc7b757e7bdd7254a9cd39452d307a52761bc824625c6a33104a075d8099e691a45050565b6001600160e01b031981166104fd83610458565b6001600160e01b03191614610256576001600160e01b0319828116600081815260208190526040808220600101805463ffffffff191660e087901c17905551928416927fd348e2220a50b4500ec353f6e802d2f14dd1b5d6786148fd1bbcc570bf92d4739190a35050565b6105728282610423565b610256576001600160e01b031982166000818152602081815260408083206001600160a01b0386168085529252808320805460ff1916600117905551339391927fe6231789d19137da31d0550f4ba9ee379020a8cfb64cb79bf1790c996d2e616591a45050565b80356001600160e01b0319811681146105f157600080fd5b919050565b80356001600160a01b03811681146105f157600080fd5b6000806040838503121561062057600080fd5b610629836105d9565b9150610637602084016105f6565b90509250929050565b60006020828403121561065257600080fd5b6101cd826105d9565b634e487b7160e01b600052604160045260246000fd5b6000806040838503121561068457600080fd5b823567ffffffffffffffff8082111561069c57600080fd5b818501915085601f8301126106b057600080fd5b81356020828211156106c4576106c461065b565b8160051b604051601f19603f830116810181811086821117156106e9576106e961065b565b60405292835281830193508481018201928984111561070757600080fd5b948201945b8386101561072c5761071d866105d9565b8552948201949382019361070c565b965061073b90508782016105f6565b9450505050509250929050565b6000806040838503121561075b57600080fd5b610764836105d9565b9150610637602084016105d9565b6020808252600a908201526927b7363c9030b236b4b760b11b604082015260600190565b634e487b7160e01b600052603260045260246000fd5b6000600182016107cc57634e487b7160e01b600052601160045260246000fd5b506001019056fea26469706673582212201c9bd8ac5e7b12a8a45fec6dbd7f8b8c0b4e693e858e952d77f1285b8811287564736f6c634300080e0033",
    "linkReferences": {}
  },
  "methodIdentifiers": {
    "LOCK()": "a4f0d7d0",
    "LOCK8605463013()": "ffffffff",
    "ROOT()": "5909c12f",
    "ROOT4146650865()": "00000000",
    "getRoleAdmin(bytes4)": "5ba5e9f0",
    "grantRole(bytes4,address)": "de02cde7",
    "grantRoles(bytes4[],address)": "effae353",
    "hasRole(bytes4,address)": "10ab9432",
    "lockRole(bytes4)": "559742d9",
    "renounceRole(bytes4,address)": "687f0e4c",
    "revokeRole(bytes4,address)": "44faded0",
    "revokeRoles(bytes4[],address)": "ad82110f",
    "setRoleAdmin(bytes4,bytes4)": "ae93c1b5"
  },
  "id": 4
}