{
  "abi": [
    {
      "inputs": [],
      "stateMutability": "nonpayable",
      "type": "constructor"
    },
    {
      "inputs": [
        {
          "internalType": "address",
          "name": "msgSender",
          "type": "address"
        },
        {
          "internalType": "bool",
          "name": "pausedState",
          "type": "bool"
        }
      ],
      "name": "RequirePaused",
      "type": "error"
    },
    {
      "inputs": [
        {
          "internalType": "address",
          "name": "msgSender",
          "type": "address"
        },
        {
          "internalType": "bool",
          "name": "pausedState",
          "type": "bool"
        }
      ],
      "name": "RequireUnpaused",
      "type": "error"
    },
    {
      "anonymous": false,
      "inputs": [
        {
          "indexed": true,
          "internalType": "address",
          "name": "account",
          "type": "address"
        },
        {
          "indexed": true,
          "internalType": "bool",
          "name": "state",
          "type": "bool"
        }
      ],
      "name": "Paused",
      "type": "event"
    },
    {
      "anonymous": false,
      "inputs": [
        {
          "indexed": true,
          "internalType": "bytes4",
          "name": "role",
          "type": "bytes4"
        },
        {
          "indexed": true,
          "internalType": "bytes4",
          "name": "newAdminRole",
          "type": "bytes4"
        }
      ],
      "name": "RoleAdminChanged",
      "type": "event"
    },
    {
      "anonymous": false,
      "inputs": [
        {
          "indexed": true,
          "internalType": "bytes4",
          "name": "role",
          "type": "bytes4"
        },
        {
          "indexed": true,
          "internalType": "address",
          "name": "account",
          "type": "address"
        },
        {
          "indexed": true,
          "internalType": "address",
          "name": "sender",
          "type": "address"
        }
      ],
      "name": "RoleGranted",
      "type": "event"
    },
    {
      "anonymous": false,
      "inputs": [
        {
          "indexed": true,
          "internalType": "bytes4",
          "name": "role",
          "type": "bytes4"
        },
        {
          "indexed": true,
          "internalType": "address",
          "name": "account",
          "type": "address"
        },
        {
          "indexed": true,
          "internalType": "address",
          "name": "sender",
          "type": "address"
        }
      ],
      "name": "RoleRevoked",
      "type": "event"
    },
    {
      "inputs": [],
      "name": "LOCK",
      "outputs": [
        {
          "internalType": "bytes4",
          "name": "",
          "type": "bytes4"
        }
      ],
      "stateMutability": "view",
      "type": "function"
    },
    {
      "inputs": [],
      "name": "LOCK8605463013",
      "outputs": [
        {
          "internalType": "bytes4",
          "name": "",
          "type": "bytes4"
        }
      ],
      "stateMutability": "view",
      "type": "function"
    },
    {
      "inputs": [],
      "name": "ROOT",
      "outputs": [
        {
          "internalType": "bytes4",
          "name": "",
          "type": "bytes4"
        }
      ],
      "stateMutability": "view",
      "type": "function"
    },
    {
      "inputs": [],
      "name": "ROOT4146650865",
      "outputs": [
        {
          "internalType": "bytes4",
          "name": "",
          "type": "bytes4"
        }
      ],
      "stateMutability": "view",
      "type": "function"
    },
    {
      "inputs": [
        {
          "internalType": "bytes4",
          "name": "role",
          "type": "bytes4"
        }
      ],
      "name": "getRoleAdmin",
      "outputs": [
        {
          "internalType": "bytes4",
          "name": "",
          "type": "bytes4"
        }
      ],
      "stateMutability": "view",
      "type": "function"
    },
    {
      "inputs": [
        {
          "internalType": "bytes4",
          "name": "role",
          "type": "bytes4"
        },
        {
          "internalType": "address",
          "name": "account",
          "type": "address"
        }
      ],
      "name": "grantRole",
      "outputs": [],
      "stateMutability": "nonpayable",
      "type": "function"
    },
    {
      "inputs": [
        {
          "internalType": "bytes4[]",
          "name": "roles",
          "type": "bytes4[]"
        },
        {
          "internalType": "address",
          "name": "account",
          "type": "address"
        }
      ],
      "name": "grantRoles",
      "outputs": [],
      "stateMutability": "nonpayable",
      "type": "function"
    },
    {
      "inputs": [
        {
          "internalType": "bytes4",
          "name": "role",
          "type": "bytes4"
        },
        {
          "internalType": "address",
          "name": "account",
          "type": "address"
        }
      ],
      "name": "hasRole",
      "outputs": [
        {
          "internalType": "bool",
          "name": "",
          "type": "bool"
        }
      ],
      "stateMutability": "view",
      "type": "function"
    },
    {
      "inputs": [
        {
          "internalType": "bytes4",
          "name": "role",
          "type": "bytes4"
        }
      ],
      "name": "lockRole",
      "outputs": [],
      "stateMutability": "nonpayable",
      "type": "function"
    },
    {
      "inputs": [],
      "name": "pause",
      "outputs": [],
      "stateMutability": "nonpayable",
      "type": "function"
    },
    {
      "inputs": [],
      "name": "paused",
      "outputs": [
        {
          "internalType": "bool",
          "name": "",
          "type": "bool"
        }
      ],
      "stateMutability": "view",
      "type": "function"
    },
    {
      "inputs": [
        {
          "internalType": "bytes4",
          "name": "role",
          "type": "bytes4"
        },
        {
          "internalType": "address",
          "name": "account",
          "type": "address"
        }
      ],
      "name": "renounceRole",
      "outputs": [],
      "stateMutability": "nonpayable",
      "type": "function"
    },
    {
      "inputs": [
        {
          "internalType": "bytes4",
          "name": "role",
          "type": "bytes4"
        },
        {
          "internalType": "address",
          "name": "account",
          "type": "address"
        }
      ],
      "name": "revokeRole",
      "outputs": [],
      "stateMutability": "nonpayable",
      "type": "function"
    },
    {
      "inputs": [
        {
          "internalType": "bytes4[]",
          "name": "roles",
          "type": "bytes4[]"
        },
        {
          "internalType": "address",
          "name": "account",
          "type": "address"
        }
      ],
      "name": "revokeRoles",
      "outputs": [],
      "stateMutability": "nonpayable",
      "type": "function"
    },
    {
      "inputs": [
        {
          "internalType": "bytes4",
          "name": "role",
          "type": "bytes4"
        },
        {
          "internalType": "bytes4",
          "name": "adminRole",
          "type": "bytes4"
        }
      ],
      "name": "setRoleAdmin",
      "outputs": [],
      "stateMutability": "nonpayable",
      "type": "function"
    },
    {
      "inputs": [],
      "name": "unpause",
      "outputs": [],
      "stateMutability": "nonpayable",
      "type": "function"
    }
  ],
  "bytecode": {
    "object": "0x608060405234801561001057600080fd5b5061001c60003361003d565b61002e6001600160e01b0319806100d4565b6001805460ff19169055610170565b6001600160e01b031982166000908152602081815260408083206001600160a01b038516845290915290205460ff166100d0576001600160e01b031982166000818152602081815260408083206001600160a01b0386168085529252808320805460ff1916600117905551339391927fe6231789d19137da31d0550f4ba9ee379020a8cfb64cb79bf1790c996d2e616591a45b5050565b6001600160e01b03198116610105836001600160e01b03191660009081526020819052604090206001015460e01b90565b6001600160e01b031916146100d0576001600160e01b0319828116600081815260208190526040808220600101805463ffffffff191660e087901c17905551928416927fd348e2220a50b4500ec353f6e802d2f14dd1b5d6786148fd1bbcc570bf92d4739190a35050565b6109d68061017f6000396000f3fe608060405234801561001057600080fd5b50600436106100fb5760003560e01c8063687f0e4c11610097578063ae93c1b511610066578063ae93c1b5146101d6578063de02cde7146101e9578063effae353146101fc578063ffffffff146101b457600080fd5b8063687f0e4c146101995780638456cb59146101ac578063a4f0d7d0146101b4578063ad82110f146101c357600080fd5b8063559742d9116100d3578063559742d9146101665780635909c12f146101005780635ba5e9f0146101795780635c975abb1461018c57600080fd5b801561010057806310ab9432146101265780633f4ba83a1461014957806344faded014610153575b600080fd5b610108600081565b6040516001600160e01b031990911681526020015b60405180910390f35b6101396101343660046107da565b61020f565b604051901515815260200161011d565b610151610222565b005b6101516101613660046107da565b6102ea565b61015161017436600461080d565b610328565b61010861018736600461080d565b610367565b6001546101399060ff1681565b6101516101a73660046107da565b610378565b6101516103d3565b6101086001600160e01b031981565b6101516101d136600461083e565b610493565b6101516101e4366004610915565b610515565b6101516101f73660046107da565b610548565b61015161020a36600461083e565b61057b565b600061021b83836105f0565b9392505050565b6102386000356001600160e01b031916336105f0565b6102795760405162461bcd60e51b815260206004820152600d60248201526c1058d8d95cdcc819195b9a5959609a1b60448201526064015b60405180910390fd5b6001805460ff161515146102b1576001546040516317ed3a7760e11b815233600482015260ff90911615156024820152604401610270565b6001805460ff1916905560405160009033907fe8699cf681560fd07de85543bd994263f4557bdc5179dd702f256d15fd083e1d908390a3565b816102fd6102f782610625565b336105f0565b6103195760405162461bcd60e51b81526004016102709061093f565b6103238383610647565b505050565b806103356102f782610625565b6103515760405162461bcd60e51b81526004016102709061093f565b610363826001600160e01b03196106b6565b5050565b600061037282610625565b92915050565b6001600160a01b03811633146103c95760405162461bcd60e51b81526020600482015260166024820152752932b737bab731b29037b7363c903337b91039b2b63360511b6044820152606401610270565b6103638282610647565b6103e96000356001600160e01b031916336105f0565b6104255760405162461bcd60e51b815260206004820152600d60248201526c1058d8d95cdcc819195b9a5959609a1b6044820152606401610270565b60015460ff161561045a5760015460405163b2cbce4d60e01b815233600482015260ff90911615156024820152604401610270565b6001805460ff19168117815560405133907fe8699cf681560fd07de85543bd994263f4557bdc5179dd702f256d15fd083e1d90600090a3565b60005b8251811015610323576104c46102f78483815181106104b7576104b7610963565b6020026020010151610625565b6104e05760405162461bcd60e51b81526004016102709061093f565b6105038382815181106104f5576104f5610963565b602002602001015183610647565b8061050d81610979565b915050610496565b816105226102f782610625565b61053e5760405162461bcd60e51b81526004016102709061093f565b61032383836106b6565b816105556102f782610625565b6105715760405162461bcd60e51b81526004016102709061093f565b6103238383610735565b60005b82518110156103235761059f6102f78483815181106104b7576104b7610963565b6105bb5760405162461bcd60e51b81526004016102709061093f565b6105de8382815181106105d0576105d0610963565b602002602001015183610735565b806105e881610979565b91505061057e565b6001600160e01b031982166000908152602081815260408083206001600160a01b038516845290915290205460ff1692915050565b6001600160e01b03191660009081526020819052604090206001015460e01b90565b61065182826105f0565b15610363576001600160e01b031982166000818152602081815260408083206001600160a01b0386168085529252808320805460ff1916905551339391927f4ddc7b757e7bdd7254a9cd39452d307a52761bc824625c6a33104a075d8099e691a45050565b6001600160e01b031981166106ca83610625565b6001600160e01b03191614610363576001600160e01b0319828116600081815260208190526040808220600101805463ffffffff191660e087901c17905551928416927fd348e2220a50b4500ec353f6e802d2f14dd1b5d6786148fd1bbcc570bf92d4739190a35050565b61073f82826105f0565b610363576001600160e01b031982166000818152602081815260408083206001600160a01b0386168085529252808320805460ff1916600117905551339391927fe6231789d19137da31d0550f4ba9ee379020a8cfb64cb79bf1790c996d2e616591a45050565b80356001600160e01b0319811681146107be57600080fd5b919050565b80356001600160a01b03811681146107be57600080fd5b600080604083850312156107ed57600080fd5b6107f6836107a6565b9150610804602084016107c3565b90509250929050565b60006020828403121561081f57600080fd5b61021b826107a6565b634e487b7160e01b600052604160045260246000fd5b6000806040838503121561085157600080fd5b823567ffffffffffffffff8082111561086957600080fd5b818501915085601f83011261087d57600080fd5b813560208282111561089157610891610828565b8160051b604051601f19603f830116810181811086821117156108b6576108b6610828565b6040529283528183019350848101820192898411156108d457600080fd5b948201945b838610156108f9576108ea866107a6565b855294820194938201936108d9565b965061090890508782016107c3565b9450505050509250929050565b6000806040838503121561092857600080fd5b610931836107a6565b9150610804602084016107a6565b6020808252600a908201526927b7363c9030b236b4b760b11b604082015260600190565b634e487b7160e01b600052603260045260246000fd5b60006001820161099957634e487b7160e01b600052601160045260246000fd5b506001019056fea2646970667358221220de5d0b66b38761b8a4806aaf105284adebd397d71059a41ebc67ec9b8bfaeab564736f6c634300080e0033",
    "linkReferences": {}
  },
  "methodIdentifiers": {
    "LOCK()": "a4f0d7d0",
    "LOCK8605463013()": "ffffffff",
    "ROOT()": "5909c12f",
    "ROOT4146650865()": "00000000",
    "getRoleAdmin(bytes4)": "5ba5e9f0",
    "grantRole(bytes4,address)": "de02cde7",
    "grantRoles(bytes4[],address)": "effae353",
    "hasRole(bytes4,address)": "10ab9432",
    "lockRole(bytes4)": "559742d9",
    "pause()": "8456cb59",
    "paused()": "5c975abb",
    "renounceRole(bytes4,address)": "687f0e4c",
    "revokeRole(bytes4,address)": "44faded0",
    "revokeRoles(bytes4[],address)": "ad82110f",
    "setRoleAdmin(bytes4,bytes4)": "ae93c1b5",
    "unpause()": "3f4ba83a"
  },
  "id": 5
}